{
    "contractName": "AVANFT",
    "abi": [
        {
            "inputs": [],
            "stateMutability": "nonpayable",
            "type": "constructor"
        },
        {
            "anonymous": false,
            "inputs": [
                {
                    "indexed": true,
                    "internalType": "address",
                    "name": "owner",
                    "type": "address"
                },
                {
                    "indexed": true,
                    "internalType": "address",
                    "name": "approved",
                    "type": "address"
                },
                {
                    "indexed": true,
                    "internalType": "uint256",
                    "name": "tokenId",
                    "type": "uint256"
                }
            ],
            "name": "Approval",
            "type": "event"
        },
        {
            "anonymous": false,
            "inputs": [
                {
                    "indexed": true,
                    "internalType": "address",
                    "name": "owner",
                    "type": "address"
                },
                {
                    "indexed": true,
                    "internalType": "address",
                    "name": "operator",
                    "type": "address"
                },
                {
                    "indexed": false,
                    "internalType": "bool",
                    "name": "approved",
                    "type": "bool"
                }
            ],
            "name": "ApprovalForAll",
            "type": "event"
        },
        {
            "anonymous": false,
            "inputs": [
                {
                    "indexed": false,
                    "internalType": "uint256",
                    "name": "_fromTokenId",
                    "type": "uint256"
                },
                {
                    "indexed": false,
                    "internalType": "uint256",
                    "name": "_toTokenId",
                    "type": "uint256"
                }
            ],
            "name": "BatchMetadataUpdate",
            "type": "event"
        },
        {
            "anonymous": false,
            "inputs": [
                {
                    "indexed": false,
                    "internalType": "uint256",
                    "name": "_tokenId",
                    "type": "uint256"
                }
            ],
            "name": "MetadataUpdate",
            "type": "event"
        },
        {
            "anonymous": false,
            "inputs": [
                {
                    "indexed": true,
                    "internalType": "address",
                    "name": "to",
                    "type": "address"
                },
                {
                    "indexed": false,
                    "internalType": "uint256",
                    "name": "tokenId",
                    "type": "uint256"
                },
                {
                    "indexed": false,
                    "internalType": "enum AVANFT.Rank",
                    "name": "rank",
                    "type": "uint8"
                }
            ],
            "name": "Minted",
            "type": "event"
        },
        {
            "anonymous": false,
            "inputs": [
                {
                    "indexed": true,
                    "internalType": "address",
                    "name": "previousOwner",
                    "type": "address"
                },
                {
                    "indexed": true,
                    "internalType": "address",
                    "name": "newOwner",
                    "type": "address"
                }
            ],
            "name": "OwnershipTransferred",
            "type": "event"
        },
        {
            "anonymous": false,
            "inputs": [
                {
                    "indexed": true,
                    "internalType": "address",
                    "name": "from",
                    "type": "address"
                },
                {
                    "indexed": true,
                    "internalType": "address",
                    "name": "to",
                    "type": "address"
                },
                {
                    "indexed": true,
                    "internalType": "uint256",
                    "name": "tokenId",
                    "type": "uint256"
                }
            ],
            "name": "Transfer",
            "type": "event"
        },
        {
            "inputs": [
                {
                    "internalType": "address",
                    "name": "to",
                    "type": "address"
                },
                {
                    "internalType": "uint256",
                    "name": "tokenId",
                    "type": "uint256"
                }
            ],
            "name": "approve",
            "outputs": [],
            "stateMutability": "nonpayable",
            "type": "function"
        },
        {
            "inputs": [
                {
                    "internalType": "address",
                    "name": "owner",
                    "type": "address"
                }
            ],
            "name": "balanceOf",
            "outputs": [
                {
                    "internalType": "uint256",
                    "name": "",
                    "type": "uint256"
                }
            ],
            "stateMutability": "view",
            "type": "function"
        },
        {
            "inputs": [],
            "name": "getAllTokenOwnersWithRanks",
            "outputs": [
                {
                    "internalType": "address[]",
                    "name": "",
                    "type": "address[]"
                },
                {
                    "internalType": "string[]",
                    "name": "",
                    "type": "string[]"
                }
            ],
            "stateMutability": "view",
            "type": "function"
        },
        {
            "inputs": [
                {
                    "internalType": "uint256",
                    "name": "tokenId",
                    "type": "uint256"
                }
            ],
            "name": "getApproved",
            "outputs": [
                {
                    "internalType": "address",
                    "name": "",
                    "type": "address"
                }
            ],
            "stateMutability": "view",
            "type": "function"
        },
        {
            "inputs": [
                {
                    "internalType": "address",
                    "name": "_address",
                    "type": "address"
                }
            ],
            "name": "getTokensOfAddress",
            "outputs": [
                {
                    "internalType": "uint256[]",
                    "name": "",
                    "type": "uint256[]"
                },
                {
                    "internalType": "string[]",
                    "name": "",
                    "type": "string[]"
                }
            ],
            "stateMutability": "view",
            "type": "function"
        },
        {
            "inputs": [
                {
                    "internalType": "address",
                    "name": "owner",
                    "type": "address"
                },
                {
                    "internalType": "address",
                    "name": "operator",
                    "type": "address"
                }
            ],
            "name": "isApprovedForAll",
            "outputs": [
                {
                    "internalType": "bool",
                    "name": "",
                    "type": "bool"
                }
            ],
            "stateMutability": "view",
            "type": "function"
        },
        {
            "inputs": [
                {
                    "internalType": "address",
                    "name": "to",
                    "type": "address"
                },
                {
                    "internalType": "enum AVANFT.Rank",
                    "name": "rank",
                    "type": "uint8"
                }
            ],
            "name": "mint",
            "outputs": [],
            "stateMutability": "nonpayable",
            "type": "function"
        },
        {
            "inputs": [],
            "name": "name",
            "outputs": [
                {
                    "internalType": "string",
                    "name": "",
                    "type": "string"
                }
            ],
            "stateMutability": "view",
            "type": "function"
        },
        {
            "inputs": [],
            "name": "owner",
            "outputs": [
                {
                    "internalType": "address",
                    "name": "",
                    "type": "address"
                }
            ],
            "stateMutability": "view",
            "type": "function"
        },
        {
            "inputs": [
                {
                    "internalType": "uint256",
                    "name": "tokenId",
                    "type": "uint256"
                }
            ],
            "name": "ownerOf",
            "outputs": [
                {
                    "internalType": "address",
                    "name": "",
                    "type": "address"
                }
            ],
            "stateMutability": "view",
            "type": "function"
        },
        {
            "inputs": [
                {
                    "internalType": "enum AVANFT.Rank",
                    "name": "",
                    "type": "uint8"
                }
            ],
            "name": "rankToString",
            "outputs": [
                {
                    "internalType": "string",
                    "name": "",
                    "type": "string"
                }
            ],
            "stateMutability": "view",
            "type": "function"
        },
        {
            "inputs": [
                {
                    "internalType": "enum AVANFT.Rank",
                    "name": "",
                    "type": "uint8"
                }
            ],
            "name": "rankToURI",
            "outputs": [
                {
                    "internalType": "string",
                    "name": "",
                    "type": "string"
                }
            ],
            "stateMutability": "view",
            "type": "function"
        },
        {
            "inputs": [],
            "name": "renounceOwnership",
            "outputs": [],
            "stateMutability": "nonpayable",
            "type": "function"
        },
        {
            "inputs": [
                {
                    "internalType": "address",
                    "name": "from",
                    "type": "address"
                },
                {
                    "internalType": "address",
                    "name": "to",
                    "type": "address"
                },
                {
                    "internalType": "uint256",
                    "name": "tokenId",
                    "type": "uint256"
                }
            ],
            "name": "safeTransferFrom",
            "outputs": [],
            "stateMutability": "nonpayable",
            "type": "function"
        },
        {
            "inputs": [
                {
                    "internalType": "address",
                    "name": "from",
                    "type": "address"
                },
                {
                    "internalType": "address",
                    "name": "to",
                    "type": "address"
                },
                {
                    "internalType": "uint256",
                    "name": "tokenId",
                    "type": "uint256"
                },
                {
                    "internalType": "bytes",
                    "name": "data",
                    "type": "bytes"
                }
            ],
            "name": "safeTransferFrom",
            "outputs": [],
            "stateMutability": "nonpayable",
            "type": "function"
        },
        {
            "inputs": [
                {
                    "internalType": "address",
                    "name": "operator",
                    "type": "address"
                },
                {
                    "internalType": "bool",
                    "name": "approved",
                    "type": "bool"
                }
            ],
            "name": "setApprovalForAll",
            "outputs": [],
            "stateMutability": "nonpayable",
            "type": "function"
        },
        {
            "inputs": [
                {
                    "internalType": "enum AVANFT.Rank",
                    "name": "rank",
                    "type": "uint8"
                },
                {
                    "internalType": "string",
                    "name": "uri",
                    "type": "string"
                }
            ],
            "name": "setRankURI",
            "outputs": [],
            "stateMutability": "nonpayable",
            "type": "function"
        },
        {
            "inputs": [
                {
                    "internalType": "bytes4",
                    "name": "interfaceId",
                    "type": "bytes4"
                }
            ],
            "name": "supportsInterface",
            "outputs": [
                {
                    "internalType": "bool",
                    "name": "",
                    "type": "bool"
                }
            ],
            "stateMutability": "view",
            "type": "function"
        },
        {
            "inputs": [],
            "name": "symbol",
            "outputs": [
                {
                    "internalType": "string",
                    "name": "",
                    "type": "string"
                }
            ],
            "stateMutability": "view",
            "type": "function"
        },
        {
            "inputs": [
                {
                    "internalType": "uint256",
                    "name": "index",
                    "type": "uint256"
                }
            ],
            "name": "tokenByIndex",
            "outputs": [
                {
                    "internalType": "uint256",
                    "name": "",
                    "type": "uint256"
                }
            ],
            "stateMutability": "view",
            "type": "function"
        },
        {
            "inputs": [
                {
                    "internalType": "address",
                    "name": "owner",
                    "type": "address"
                },
                {
                    "internalType": "uint256",
                    "name": "index",
                    "type": "uint256"
                }
            ],
            "name": "tokenOfOwnerByIndex",
            "outputs": [
                {
                    "internalType": "uint256",
                    "name": "",
                    "type": "uint256"
                }
            ],
            "stateMutability": "view",
            "type": "function"
        },
        {
            "inputs": [
                {
                    "internalType": "uint256",
                    "name": "",
                    "type": "uint256"
                }
            ],
            "name": "tokenRank",
            "outputs": [
                {
                    "internalType": "enum AVANFT.Rank",
                    "name": "",
                    "type": "uint8"
                }
            ],
            "stateMutability": "view",
            "type": "function"
        },
        {
            "inputs": [
                {
                    "internalType": "uint256",
                    "name": "tokenId",
                    "type": "uint256"
                }
            ],
            "name": "tokenURI",
            "outputs": [
                {
                    "internalType": "string",
                    "name": "",
                    "type": "string"
                }
            ],
            "stateMutability": "view",
            "type": "function"
        },
        {
            "inputs": [],
            "name": "totalSupply",
            "outputs": [
                {
                    "internalType": "uint256",
                    "name": "",
                    "type": "uint256"
                }
            ],
            "stateMutability": "view",
            "type": "function"
        },
        {
            "inputs": [
                {
                    "internalType": "address",
                    "name": "from",
                    "type": "address"
                },
                {
                    "internalType": "address",
                    "name": "to",
                    "type": "address"
                },
                {
                    "internalType": "uint256",
                    "name": "tokenId",
                    "type": "uint256"
                }
            ],
            "name": "transferFrom",
            "outputs": [],
            "stateMutability": "nonpayable",
            "type": "function"
        },
        {
            "inputs": [
                {
                    "internalType": "address",
                    "name": "newOwner",
                    "type": "address"
                }
            ],
            "name": "transferOwnership",
            "outputs": [],
            "stateMutability": "nonpayable",
            "type": "function"
        }
    ],
    "bytecode": "60806040523480156200001157600080fd5b506040518060400160405280600e81526020016d1055904814de5cdd195b4813919560921b8152506040518060400160405280600681526020016510559053919560d21b815250816000908162000069919062000436565b50600162000078828262000436565b505050620000956200008f6200033b60201b60201c565b6200033f565b6040805180820190915260018152602560f91b60208083019190915260008052600e90527fe710864318d4a32f37d6ce54cb3fadbef648dd12d8dbdf53973564d56b7f881c90620000e7908262000436565b50604080518082019091526001808252605160f81b602080840191909152600091909152600e90527fa7c5ba7114a813b50159add3a36832908dc83db71d0b9a24c2ad0f83be958207906200013d908262000436565b506040805180820190915260018152604b60f81b6020808301919091526002600052600e90527f9adb202b1492743bc00c81d33cdc6423fa8c79109027eb6a845391e8fc1f04819062000191908262000436565b506040805180820190915260058152642537b5b2b960d91b6020808301919091526003600052600e90527fe0283e559c29e31ee7f56467acc9dd307779c843a883aeeb3bf5c6128c90814490620001e9908262000436565b5060405180606001604052806035815260200162002b7d6035913960008052600f6020527ff4803e074bd026baaf6ed2e288c9515f68c72fb7216eebdd7cae1718a53ec375906200023b908262000436565b5060405180606001604052806035815260200162002b48603591396001600052600f6020527f169f97de0d9a84d840042b17d3c6b9638b3d6fd9024c9eb0c7a306a17b49f88f906200028e908262000436565b5060405180606001604052806035815260200162002b13603591396002600052600f6020527fa74ba3945261e09fde15ba3db55005b205e61eeb4ad811ac0faa2b315bffeead90620002e1908262000436565b5060405180606001604052806035815260200162002bb2603591396003600052600f6020527f45f76dafbbad695564362934e24d72eedc57f9fc1a65f39bca62176cc82968289062000334908262000436565b5062000502565b3390565b600b80546001600160a01b038381166001600160a01b0319831681179093556040519116919082907f8be0079c531659141344cd1fd0a4f28419497f9722a3daafe3b4186f6b6457e090600090a35050565b634e487b7160e01b600052604160045260246000fd5b600181811c90821680620003bc57607f821691505b602082108103620003dd57634e487b7160e01b600052602260045260246000fd5b50919050565b601f8211156200043157600081815260208120601f850160051c810160208610156200040c5750805b601f850160051c820191505b818110156200042d5782815560010162000418565b5050505b505050565b81516001600160401b0381111562000452576200045262000391565b6200046a81620004638454620003a7565b84620003e3565b602080601f831160018114620004a25760008415620004895750858301515b600019600386901b1c1916600185901b1785556200042d565b600085815260208120601f198616915b82811015620004d357888601518255948401946001909101908401620004b2565b5085821015620004f25787850151600019600388901b60f8161c191681555b5050505050600190811b01905550565b61260180620005126000396000f3fe608060405234801561001057600080fd5b506004361061018e5760003560e01c8063691562a0116100de5780639ac8101211610097578063c87b56dd11610071578063c87b56dd1461037b578063cedccef01461038e578063e985e9c5146103a1578063f2fde38b146103dd57600080fd5b80639ac810121461033f578063a22cb46514610355578063b88d4fde1461036857600080fd5b8063691562a0146102e55780636ace3b4b146102f857806370a082311461030b578063715018a61461031e5780638da5cb5b1461032657806395d89b411461033757600080fd5b806323b872dd1161014b5780633d8ec15c116101255780633d8ec15c1461027c57806342842e0e146102ac5780634f6ccce7146102bf5780636352211e146102d257600080fd5b806323b872dd146102435780632b5cf602146102565780632f745c591461026957600080fd5b806301ffc9a71461019357806306fdde03146101bb578063081812fc146101d0578063095ea7b3146101fb57806314de39191461021057806318160ddd14610231575b600080fd5b6101a66101a1366004611e04565b6103f0565b60405190151581526020015b60405180910390f35b6101c3610410565b6040516101b29190611e71565b6101e36101de366004611e84565b6104a2565b6040516001600160a01b0390911681526020016101b2565b61020e610209366004611eb9565b6104c9565b005b61022361021e366004611ee3565b6105e3565b6040516101b2929190611f56565b6008545b6040519081526020016101b2565b61020e610251366004611fad565b6107d2565b6101c3610264366004611ff8565b610803565b610235610277366004611eb9565b61089d565b61029f61028a366004611e84565b600d6020526000908152604090205460ff1681565b6040516101b2919061204b565b61020e6102ba366004611fad565b610933565b6102356102cd366004611e84565b61094e565b6101e36102e0366004611e84565b6109e1565b61020e6102f3366004612059565b610a41565b6101c3610306366004611ff8565b610bad565b610235610319366004611ee3565b610bc6565b61020e610c4c565b600b546001600160a01b03166101e3565b6101c3610c60565b610347610c6f565b6040516101b292919061208c565b61020e6103633660046120ce565b610e6c565b61020e610376366004612196565b610e7b565b6101c3610389366004611e84565b610eb3565b61020e61039c366004612212565b610ebe565b6101a66103af366004612274565b6001600160a01b03918216600090815260056020908152604080832093909416825291909152205460ff1690565b61020e6103eb366004611ee3565b610f08565b60006103fb82610f81565b8061040a575061040a82610fa6565b92915050565b60606000805461041f9061229e565b80601f016020809104026020016040519081016040528092919081815260200182805461044b9061229e565b80156104985780601f1061046d57610100808354040283529160200191610498565b820191906000526020600020905b81548152906001019060200180831161047b57829003601f168201915b5050505050905090565b60006104ad82610fcb565b506000908152600460205260409020546001600160a01b031690565b60006104d4826109e1565b9050806001600160a01b0316836001600160a01b0316036105465760405162461bcd60e51b815260206004820152602160248201527f4552433732313a20617070726f76616c20746f2063757272656e74206f776e656044820152603960f91b60648201526084015b60405180910390fd5b336001600160a01b0382161480610562575061056281336103af565b6105d45760405162461bcd60e51b815260206004820152603d60248201527f4552433732313a20617070726f76652063616c6c6572206973206e6f7420746f60448201527f6b656e206f776e6572206f7220617070726f76656420666f7220616c6c000000606482015260840161053d565b6105de838361102a565b505050565b60608060006105f184610bc6565b905060008167ffffffffffffffff81111561060e5761060e61210a565b604051908082528060200260200182016040528015610637578160200160208202803683370190505b50905060008267ffffffffffffffff8111156106555761065561210a565b60405190808252806020026020018201604052801561068857816020015b60608152602001906001900390816106735790505b50905060005b838110156107c65760006106a2888361089d565b9050808483815181106106b7576106b76122d8565b6020908102919091018101919091526000828152600d9091526040812054600e919060ff1660038111156106ed576106ed612013565b60038111156106fe576106fe612013565b815260200190815260200160002080546107179061229e565b80601f01602080910402602001604051908101604052809291908181526020018280546107439061229e565b80156107905780601f1061076557610100808354040283529160200191610790565b820191906000526020600020905b81548152906001019060200180831161077357829003601f168201915b50505050508383815181106107a7576107a76122d8565b60200260200101819052505080806107be90612304565b91505061068e565b50909590945092505050565b6107dc3382611098565b6107f85760405162461bcd60e51b815260040161053d9061231d565b6105de838383611117565b600e602052600090815260409020805461081c9061229e565b80601f01602080910402602001604051908101604052809291908181526020018280546108489061229e565b80156108955780601f1061086a57610100808354040283529160200191610895565b820191906000526020600020905b81548152906001019060200180831161087857829003601f168201915b505050505081565b60006108a883610bc6565b821061090a5760405162461bcd60e51b815260206004820152602b60248201527f455243373231456e756d657261626c653a206f776e657220696e646578206f7560448201526a74206f6620626f756e647360a81b606482015260840161053d565b506001600160a01b03919091166000908152600660209081526040808320938352929052205490565b6105de83838360405180602001604052806000815250610e7b565b600061095960085490565b82106109bc5760405162461bcd60e51b815260206004820152602c60248201527f455243373231456e756d657261626c653a20676c6f62616c20696e646578206f60448201526b7574206f6620626f756e647360a01b606482015260840161053d565b600882815481106109cf576109cf6122d8565b90600052602060002001549050919050565b6000818152600260205260408120546001600160a01b03168061040a5760405162461bcd60e51b8152602060048201526018602482015277115490cdcc8c4e881a5b9d985b1a59081d1bdad95b88125160421b604482015260640161053d565b610a49611288565b610a57600c80546001019055565b6000610a62600c5490565b9050610a6e83826112e2565b6000818152600d60205260409020805483919060ff19166001836003811115610a9957610a99612013565b0217905550610b6581600f6000856003811115610ab857610ab8612013565b6003811115610ac957610ac9612013565b81526020019081526020016000208054610ae29061229e565b80601f0160208091040260200160405190810160405280929190818152602001828054610b0e9061229e565b8015610b5b5780601f10610b3057610100808354040283529160200191610b5b565b820191906000526020600020905b815481529060010190602001808311610b3e57829003601f168201915b50505050506112fc565b826001600160a01b03167fdcb23284f3935b5557998e99dcc286e29744c5000723d99eecd5d6f5694f6e118284604051610ba092919061236a565b60405180910390a2505050565b600f602052600090815260409020805461081c9061229e565b60006001600160a01b038216610c305760405162461bcd60e51b815260206004820152602960248201527f4552433732313a2061646472657373207a65726f206973206e6f7420612076616044820152683634b21037bbb732b960b91b606482015260840161053d565b506001600160a01b031660009081526003602052604090205490565b610c54611288565b610c5e60006113c7565b565b60606001805461041f9061229e565b6060806000610c7d60085490565b905060008167ffffffffffffffff811115610c9a57610c9a61210a565b604051908082528060200260200182016040528015610cc3578160200160208202803683370190505b50905060008267ffffffffffffffff811115610ce157610ce161210a565b604051908082528060200260200182016040528015610d1457816020015b6060815260200190600190039081610cff5790505b50905060005b83811015610e61576000610d2d8261094e565b9050610d38816109e1565b848381518110610d4a57610d4a6122d8565b6001600160a01b039092166020928302919091018201526000828152600d9091526040812054600e919060ff166003811115610d8857610d88612013565b6003811115610d9957610d99612013565b81526020019081526020016000208054610db29061229e565b80601f0160208091040260200160405190810160405280929190818152602001828054610dde9061229e565b8015610e2b5780601f10610e0057610100808354040283529160200191610e2b565b820191906000526020600020905b815481529060010190602001808311610e0e57829003601f168201915b5050505050838381518110610e4257610e426122d8565b6020026020010181905250508080610e5990612304565b915050610d1a565b509094909350915050565b610e77338383611419565b5050565b610e853383611098565b610ea15760405162461bcd60e51b815260040161053d9061231d565b610ead848484846114e7565b50505050565b606061040a8261151a565b610ec6611288565b80600f6000846003811115610edd57610edd612013565b6003811115610eee57610eee612013565b815260200190815260200160002090816105de91906123cc565b610f10611288565b6001600160a01b038116610f755760405162461bcd60e51b815260206004820152602660248201527f4f776e61626c653a206e6577206f776e657220697320746865207a65726f206160448201526564647265737360d01b606482015260840161053d565b610f7e816113c7565b50565b60006001600160e01b0319821663780e9d6360e01b148061040a575061040a82611622565b60006001600160e01b03198216632483248360e11b148061040a575061040a82610f81565b6000818152600260205260409020546001600160a01b0316610f7e5760405162461bcd60e51b8152602060048201526018602482015277115490cdcc8c4e881a5b9d985b1a59081d1bdad95b88125160421b604482015260640161053d565b600081815260046020526040902080546001600160a01b0319166001600160a01b038416908117909155819061105f826109e1565b6001600160a01b03167f8c5be1e5ebec7d5bd14f71427d1e84f3dd0314c0f7b2291e5b200ac8c7c3b92560405160405180910390a45050565b6000806110a4836109e1565b9050806001600160a01b0316846001600160a01b031614806110eb57506001600160a01b0380821660009081526005602090815260408083209388168352929052205460ff165b8061110f5750836001600160a01b0316611104846104a2565b6001600160a01b0316145b949350505050565b826001600160a01b031661112a826109e1565b6001600160a01b0316146111505760405162461bcd60e51b815260040161053d9061248c565b6001600160a01b0382166111b25760405162461bcd60e51b8152602060048201526024808201527f4552433732313a207472616e7366657220746f20746865207a65726f206164646044820152637265737360e01b606482015260840161053d565b6111bf8383836001611672565b826001600160a01b03166111d2826109e1565b6001600160a01b0316146111f85760405162461bcd60e51b815260040161053d9061248c565b600081815260046020908152604080832080546001600160a01b03199081169091556001600160a01b0387811680865260038552838620805460001901905590871680865283862080546001019055868652600290945282852080549092168417909155905184937fddf252ad1be2c89b69c2b068fc378daa952ba7f163c4a11628f55a4df523b3ef91a4505050565b600b546001600160a01b03163314610c5e5760405162461bcd60e51b815260206004820181905260248201527f4f776e61626c653a2063616c6c6572206973206e6f7420746865206f776e6572604482015260640161053d565b610e7782826040518060200160405280600081525061167e565b6000828152600260205260409020546001600160a01b03166113775760405162461bcd60e51b815260206004820152602e60248201527f45524337323155524953746f726167653a2055524920736574206f66206e6f6e60448201526d32bc34b9ba32b73a103a37b5b2b760911b606482015260840161053d565b6000828152600a6020526040902061138f82826123cc565b506040518281527ff8e1a15aba9398e019f0b49df1a4fde98ee17ae345cb5f6b5e2c27f5033e8ce79060200160405180910390a15050565b600b80546001600160a01b038381166001600160a01b0319831681179093556040519116919082907f8be0079c531659141344cd1fd0a4f28419497f9722a3daafe3b4186f6b6457e090600090a35050565b816001600160a01b0316836001600160a01b03160361147a5760405162461bcd60e51b815260206004820152601960248201527f4552433732313a20617070726f766520746f2063616c6c657200000000000000604482015260640161053d565b6001600160a01b03838116600081815260056020908152604080832094871680845294825291829020805460ff191686151590811790915591519182527f17307eab39ab6107e8899845ad3d59bd9653f200f220920489ca2b5937696c31910160405180910390a3505050565b6114f2848484611117565b6114fe848484846116b1565b610ead5760405162461bcd60e51b815260040161053d906124d1565b606061152582610fcb565b6000828152600a60205260408120805461153e9061229e565b80601f016020809104026020016040519081016040528092919081815260200182805461156a9061229e565b80156115b75780601f1061158c576101008083540402835291602001916115b7565b820191906000526020600020905b81548152906001019060200180831161159a57829003601f168201915b5050505050905060006115d560408051602081019091526000815290565b905080516000036115e7575092915050565b815115611619578082604051602001611601929190612523565b60405160208183030381529060405292505050919050565b61110f846117b2565b60006001600160e01b031982166380ac58cd60e01b148061165357506001600160e01b03198216635b5e139f60e01b145b8061040a57506301ffc9a760e01b6001600160e01b031983161461040a565b610ead84848484611826565b611688838361195a565b61169560008484846116b1565b6105de5760405162461bcd60e51b815260040161053d906124d1565b60006001600160a01b0384163b156117a757604051630a85bd0160e11b81526001600160a01b0385169063150b7a02906116f5903390899088908890600401612552565b6020604051808303816000875af1925050508015611730575060408051601f3d908101601f1916820190925261172d91810190612585565b60015b61178d573d80801561175e576040519150601f19603f3d011682016040523d82523d6000602084013e611763565b606091505b5080516000036117855760405162461bcd60e51b815260040161053d906124d1565b805181602001fd5b6001600160e01b031916630a85bd0160e11b14905061110f565b506001949350505050565b60606117bd82610fcb565b60006117d460408051602081019091526000815290565b905060008151116117f4576040518060200160405280600081525061181f565b806117fe84611af3565b60405160200161180f929190612523565b6040516020818303038152906040525b9392505050565b60018111156118955760405162461bcd60e51b815260206004820152603560248201527f455243373231456e756d657261626c653a20636f6e7365637574697665207472604482015274185b9cd9995c9cc81b9bdd081cdd5c1c1bdc9d1959605a1b606482015260840161053d565b816001600160a01b0385166118f1576118ec81600880546000838152600960205260408120829055600182018355919091527ff3f7a9fe364faab93b216da50a3214154f22a0a2b415b23a84c8169e8b636ee30155565b611914565b836001600160a01b0316856001600160a01b031614611914576119148582611b86565b6001600160a01b0384166119305761192b81611c23565b611953565b846001600160a01b0316846001600160a01b031614611953576119538482611cd2565b5050505050565b6001600160a01b0382166119b05760405162461bcd60e51b815260206004820181905260248201527f4552433732313a206d696e7420746f20746865207a65726f2061646472657373604482015260640161053d565b6000818152600260205260409020546001600160a01b031615611a155760405162461bcd60e51b815260206004820152601c60248201527f4552433732313a20746f6b656e20616c7265616479206d696e74656400000000604482015260640161053d565b611a23600083836001611672565b6000818152600260205260409020546001600160a01b031615611a885760405162461bcd60e51b815260206004820152601c60248201527f4552433732313a20746f6b656e20616c7265616479206d696e74656400000000604482015260640161053d565b6001600160a01b038216600081815260036020908152604080832080546001019055848352600290915280822080546001600160a01b0319168417905551839291907fddf252ad1be2c89b69c2b068fc378daa952ba7f163c4a11628f55a4df523b3ef908290a45050565b60606000611b0083611d16565b600101905060008167ffffffffffffffff811115611b2057611b2061210a565b6040519080825280601f01601f191660200182016040528015611b4a576020820181803683370190505b5090508181016020015b600019016f181899199a1a9b1b9c1cb0b131b232b360811b600a86061a8153600a8504945084611b5457509392505050565b60006001611b9384610bc6565b611b9d91906125a2565b600083815260076020526040902054909150808214611bf0576001600160a01b03841660009081526006602090815260408083208584528252808320548484528184208190558352600790915290208190555b5060009182526007602090815260408084208490556001600160a01b039094168352600681528383209183525290812055565b600854600090611c35906001906125a2565b60008381526009602052604081205460088054939450909284908110611c5d57611c5d6122d8565b906000526020600020015490508060088381548110611c7e57611c7e6122d8565b6000918252602080832090910192909255828152600990915260408082208490558582528120556008805480611cb657611cb66125b5565b6001900381819060005260206000200160009055905550505050565b6000611cdd83610bc6565b6001600160a01b039093166000908152600660209081526040808320868452825280832085905593825260079052919091209190915550565b60008072184f03e93ff9f4daa797ed6e38ed64bf6a1f0160401b8310611d555772184f03e93ff9f4daa797ed6e38ed64bf6a1f0160401b830492506040015b6d04ee2d6d415b85acef81000000008310611d81576d04ee2d6d415b85acef8100000000830492506020015b662386f26fc100008310611d9f57662386f26fc10000830492506010015b6305f5e1008310611db7576305f5e100830492506008015b6127108310611dcb57612710830492506004015b60648310611ddd576064830492506002015b600a831061040a5760010192915050565b6001600160e01b031981168114610f7e57600080fd5b600060208284031215611e1657600080fd5b813561181f81611dee565b60005b83811015611e3c578181015183820152602001611e24565b50506000910152565b60008151808452611e5d816020860160208601611e21565b601f01601f19169290920160200192915050565b60208152600061181f6020830184611e45565b600060208284031215611e9657600080fd5b5035919050565b80356001600160a01b0381168114611eb457600080fd5b919050565b60008060408385031215611ecc57600080fd5b611ed583611e9d565b946020939093013593505050565b600060208284031215611ef557600080fd5b61181f82611e9d565b600082825180855260208086019550808260051b84010181860160005b84811015611f4957601f19868403018952611f37838351611e45565b98840198925090830190600101611f1b565b5090979650505050505050565b604080825283519082018190526000906020906060840190828701845b82811015611f8f57815184529284019290840190600101611f73565b50505083810382850152611fa38186611efe565b9695505050505050565b600080600060608486031215611fc257600080fd5b611fcb84611e9d565b9250611fd960208501611e9d565b9150604084013590509250925092565b803560048110611eb457600080fd5b60006020828403121561200a57600080fd5b61181f82611fe9565b634e487b7160e01b600052602160045260246000fd5b6004811061204757634e487b7160e01b600052602160045260246000fd5b9052565b6020810161040a8284612029565b6000806040838503121561206c57600080fd5b61207583611e9d565b915061208360208401611fe9565b90509250929050565b604080825283519082018190526000906020906060840190828701845b82811015611f8f5781516001600160a01b0316845292840192908401906001016120a9565b600080604083850312156120e157600080fd5b6120ea83611e9d565b9150602083013580151581146120ff57600080fd5b809150509250929050565b634e487b7160e01b600052604160045260246000fd5b600067ffffffffffffffff8084111561213b5761213b61210a565b604051601f8501601f19908116603f011681019082821181831017156121635761216361210a565b8160405280935085815286868601111561217c57600080fd5b858560208301376000602087830101525050509392505050565b600080600080608085870312156121ac57600080fd5b6121b585611e9d565b93506121c360208601611e9d565b925060408501359150606085013567ffffffffffffffff8111156121e657600080fd5b8501601f810187136121f757600080fd5b61220687823560208401612120565b91505092959194509250565b6000806040838503121561222557600080fd5b61222e83611fe9565b9150602083013567ffffffffffffffff81111561224a57600080fd5b8301601f8101851361225b57600080fd5b61226a85823560208401612120565b9150509250929050565b6000806040838503121561228757600080fd5b61229083611e9d565b915061208360208401611e9d565b600181811c908216806122b257607f821691505b6020821081036122d257634e487b7160e01b600052602260045260246000fd5b50919050565b634e487b7160e01b600052603260045260246000fd5b634e487b7160e01b600052601160045260246000fd5b600060018201612316576123166122ee565b5060010190565b6020808252602d908201527f4552433732313a2063616c6c6572206973206e6f7420746f6b656e206f776e6560408201526c1c881bdc88185c1c1c9bdd9959609a1b606082015260800190565b8281526040810161181f6020830184612029565b601f8211156105de57600081815260208120601f850160051c810160208610156123a55750805b601f850160051c820191505b818110156123c4578281556001016123b1565b505050505050565b815167ffffffffffffffff8111156123e6576123e661210a565b6123fa816123f4845461229e565b8461237e565b602080601f83116001811461242f57600084156124175750858301515b600019600386901b1c1916600185901b1785556123c4565b600085815260208120601f198616915b8281101561245e5788860151825594840194600190910190840161243f565b508582101561247c5787850151600019600388901b60f8161c191681555b5050505050600190811b01905550565b60208082526025908201527f4552433732313a207472616e736665722066726f6d20696e636f72726563742060408201526437bbb732b960d91b606082015260800190565b60208082526032908201527f4552433732313a207472616e7366657220746f206e6f6e20455243373231526560408201527131b2b4bb32b91034b6b83632b6b2b73a32b960711b606082015260800190565b60008351612535818460208801611e21565b835190830190612549818360208801611e21565b01949350505050565b6001600160a01b0385811682528416602082015260408101839052608060608201819052600090611fa390830184611e45565b60006020828403121561259757600080fd5b815161181f81611dee565b8181038181111561040a5761040a6122ee565b634e487b7160e01b600052603160045260246000fdfea2646970667358221220d053e535a6b2d46098bc108df2203b38704cb7de36d65f59b414e62352086e4164736f6c63430008120033697066733a2f2f516d595a385a6f54483643585672727a554a715864345854446f5176684e625270624c653641517a314b634a6d31697066733a2f2f516d6568326a71596a70536f3754705a42517869616d616752384b556d4a386477437777745531746345336d6b46697066733a2f2f516d515673587541454a6a77453164794c39736e6f74737a35395756376a427346333364374e65424747415a5257697066733a2f2f516d597041474e617a6a734e4d63757542506a595475467a316b75776943743675376e4448395a38664c4d697732",
    "sourcePath": "c:/project/Solidity/AVANFT.sol",
    "compiler": {
        "name": "solc",
        "version": "0.8.18+commit.87f61d96"
    },
    "functionHashes": {
        "approve(address,uint256)": "095ea7b3",
        "balanceOf(address)": "70a08231",
        "getAllTokenOwnersWithRanks()": "9ac81012",
        "getApproved(uint256)": "081812fc",
        "getTokensOfAddress(address)": "14de3919",
        "isApprovedForAll(address,address)": "e985e9c5",
        "mint(address,uint8)": "691562a0",
        "name()": "06fdde03",
        "owner()": "8da5cb5b",
        "ownerOf(uint256)": "6352211e",
        "rankToString(uint8)": "2b5cf602",
        "rankToURI(uint8)": "6ace3b4b",
        "renounceOwnership()": "715018a6",
        "safeTransferFrom(address,address,uint256)": "42842e0e",
        "safeTransferFrom(address,address,uint256,bytes)": "b88d4fde",
        "setApprovalForAll(address,bool)": "a22cb465",
        "setRankURI(uint8,string)": "cedccef0",
        "supportsInterface(bytes4)": "01ffc9a7",
        "symbol()": "95d89b41",
        "tokenByIndex(uint256)": "4f6ccce7",
        "tokenOfOwnerByIndex(address,uint256)": "2f745c59",
        "tokenRank(uint256)": "3d8ec15c",
        "tokenURI(uint256)": "c87b56dd",
        "totalSupply()": "18160ddd",
        "transferFrom(address,address,uint256)": "23b872dd",
        "transferOwnership(address)": "f2fde38b"
    },
    "gasEstimates": {
        "creation": {
            "codeDepositCost": "1945800",
            "executionCost": "infinite",
            "totalCost": "infinite"
        },
        "external": {
            "approve(address,uint256)": "infinite",
            "balanceOf(address)": "2656",
            "getAllTokenOwnersWithRanks()": "infinite",
            "getApproved(uint256)": "4792",
            "getTokensOfAddress(address)": "infinite",
            "isApprovedForAll(address,address)": "infinite",
            "mint(address,uint8)": "infinite",
            "name()": "infinite",
            "owner()": "2442",
            "ownerOf(uint256)": "2649",
            "rankToString(uint8)": "infinite",
            "rankToURI(uint8)": "infinite",
            "renounceOwnership()": "infinite",
            "safeTransferFrom(address,address,uint256)": "infinite",
            "safeTransferFrom(address,address,uint256,bytes)": "infinite",
            "setApprovalForAll(address,bool)": "26750",
            "setRankURI(uint8,string)": "infinite",
            "supportsInterface(bytes4)": "infinite",
            "symbol()": "infinite",
            "tokenByIndex(uint256)": "6804",
            "tokenOfOwnerByIndex(address,uint256)": "5020",
            "tokenRank(uint256)": "2570",
            "tokenURI(uint256)": "infinite",
            "totalSupply()": "2415",
            "transferFrom(address,address,uint256)": "infinite",
            "transferOwnership(address)": "28446"
        },
        "internal": {
            "_beforeTokenTransfer(address,address,uint256,uint256)": "infinite",
            "_burn(uint256)": "infinite"
        }
    }
}